S01500004750494F5F70726F6A656374312E7372656359
S11300000C942A000C9434000C9434000C943400A6
S11300100C9434000C9434000C9434000C9434008C
S11300200C9434000C9434000C9434000C9434007C
S11300300C9434000C9434000C9434000C9434006C
S11300400C9434000C9434000C9434000C9434005C
S11300500C94340011241FBECFE5D8E0DEBFCDBF21
S11300600E9436000C9471000C9400008FEF8ABB40
S113007020E030E016C081E090E0022E02C0880F3C
S1130080991F0A94E2F79BB3892B8BBB4FEF84E350
S11300909CE0415080409040E1F700C000002F5F99
S11300A03F4F283031053CF327E030E017C081E0B2
S11300B090E0022E02C0880F991F0A94E2F78095FF
S11300C09BB389238BBB4FEF84E39CE0415080407A
S11300D09040E1F700C000002150310933233CF780
S10900E0C7CFF894FFCF26
S9030000FC
