:100000000C942A000C9434000C9434000C943400AA
:100010000C9434000C9434000C9434000C94340090
:100020000C9434000C9434000C9434000C94340080
:100030000C9434000C9434000C9434000C94340070
:100040000C9434000C9434000C9434000C94340060
:100050000C94340011241FBECFE5D8E0DEBFCDBF25
:100060000E9436000C9455000C94000081B38E7FE2
:10007000806181BB809BFECF82B3806182BB2FEF0A
:1000800089E698E1215080409040E1F700C00000EF
:1000900082B38F7E82BB2FEF89E698E121508040AA
:0E00A0009040E1F700C00000E5CFF894FFCFDC
:00000001FF
