:100000000C942A000C9434000C9434000C943400AA
:100010000C9434000C9434000C9434000C94340090
:100020000C9434000C9434000C9434000C94340080
:100030000C9434000C9434000C9434000C94340070
:100040000C9434000C9434000C9434000C94340060
:100050000C94340011241FBECFE5D8E0DEBFCDBF25
:100060000E9436000C9481000C9400008FEF8ABB34
:1000700087B38E7F87BB88B3816088BB2AE030E07E
:1000800040E050E086B3982F917080FD15C02A3073
:10009000310591F481E090E0042E02C0880F991F91
:1000A0000A94E2F79BB3892B8BBBCA010196883077
:1000B0009105C1F0AC011BC0911119C0211531058A
:1000C000B1F481E090E0042E02C0880F991F0A94D9
:1000D000E2F780959BB389238BBBCA01019728F077
:1000E000AC0105C020E030E002C02AE030E08FEF34
:1000F00099E668E1815090406040E1F700C000005F
:06010000C1CFF894FFCF0F
:00000001FF
